:020000040800F2
:10000000E00400204501000817160008AD120008A2
:100010001516000823050008811B000800000000D9
:100020000000000000000000000000003B16000877
:100030002505000800000000391600083D160008DC
:100040005F0100085F0100085F0100085F01000810
:100050005F0100085F0100085F0100085F01000800
:100060005F010008270500085F0100085F01000824
:100070005F0100085F0100085F0100085F010008E0
:100080005F0100085F0100085F0100085F010008D0
:100090005F0100085F0100085F0100085F010008C0
:1000A0005F0100085F0100085F0100085F010008B0
:1000B000091800085F0100085F0100085F010008DF
:1000C0005F0100085F0100085F0100085F01000890
:1000D0005F0100085F0100085F0100085F01000880
:1000E0005F0100085F0100085F0100085F01000870
:1000F0005F0100085F0100085F0100085F01000860
:100100005F0100085F0100085F0100085F0100084F
:100110005F0100085F0100085F0100085F0100083F
:100120005F0100085F0100085F0100085F0100082F
:10013000DFF80CD000F0D4F9004800474120000857
:10014000E00400200648804706480047FEE7FEE737
:10015000FEE7FEE7FEE7FEE7FEE7FEE7FEE7FEE777
:100160009116000831010008202A04DB203A21FA08
:1001700002F00021704721FA02F3D040C2F12002C0
:100180009140084319467047D2B201E000F8012BB4
:10019000491EFBD270470022F6E710B513460A4607
:1001A00004461946FFF7F0FF204610BD80EA010221
:1001B00010B502F00043400022D04A001FD0010ECB
:1001C00001EB1261C0F35600C2F3560240F4000086
:1001D00042F40002A0FB022000047F39140400D086
:1001E000401C50EA124001D44000491EC2B20C0625
:1001F00004EBD010401C4008802A02D003E000200D
:1002000010BD20F00100002900DA0020184310BDC5
:100210002DE9F04D81EA030404F0004B21F0004584
:1002200014464FF0000A23F0004150EA050220D0A6
:1002300054EA01021DD0C5F30A570246C5F3130361
:10024000C1F31300C1F30A5640F4801543F4801340
:10025000A7EB0608101BD64608F2FD3873EB050025
:1002600002D308F1010801E092185B41B8F1000FD8
:1002700003DA00200146BDE8F08D00204FF4801124
:10028000064684460EE0171B73EB050705D3121BC9
:1002900063EB050306434CEA010C49084FEA3000C2
:1002A00092185B4150EA0107EDD152EA030012D0E7
:1002B00082EA040083EA0501084305D0101BAB4124
:1002C00006D20122002306E000224FF0004302E0A4
:1002D0006FF0010253101AEB06004CEB085110EBC3
:1002E0000A0041EB0B01BDE8F04D00F09CB8C10FD6
:1002F00080EAE0700844CA079623002100F065B840
:100300000EB5C10F80EAE0700844CA07002140F230
:1003100033438DE80E000A460B4600F093F803B015
:1003200000BD00F0004220F00040C10DC0F31600F7
:1003300040F400007F2901DA00207047962903DC91
:10034000C1F19601C84001E096398840002AF4D0F6
:100350004042704701F0004330B421F0004150EAC0
:10036000010206D00A0DA2F56072C1F31301002A42
:1003700002DC30BC00207047440F44EAC104C100D5
:10038000E01830BC00EBC25000F016B830B50B4698
:10039000014600202022012409E021FA02F59D42B5
:1003A00005D303FA02F5491B04FA02F52844151E89
:1003B000A2F10102F1DC30BD0029A8BF7047401C4A
:1003C000490008BF20F00100704710B4B0FA80FC6B
:1003D00000FA0CF050EA010404BF10BC704749B1A8
:1003E000CCF1200421FA04F411FA0CF118BF012118
:1003F00021430843A3EB0C01CB1D4FEA00614FEAF8
:10040000102042BF002010BC704700EBC3501044C6
:100410000029A4BF10BC7047401C490008BF20F051
:10042000010010BC704710B5141E73F1000408DA07
:10043000401C41F1000192185B411A4301D120F0A8
:10044000010010BD2DE9F04D92469B4611B1B1FA65
:1004500081F202E0B0FA80F22032904600F052F8C9
:1004600004460F4640EA0A0041EA0B0153465A4649
:10047000084313D0114653EA010019D0C8F14002D5
:100480005046FFF771FE05460E4650465946424615
:1004900000F038F8084305D0012004E02046394632
:1004A000BDE8F08D0020054346EAE0762C43374353
:1004B0000A986305E40AA0EB08000022FD0A44EA5A
:1004C00047540A3002D500200146E9E7010510191A
:1004D0006941DDE9084500196941BDE8F04DA2E731
:1004E000064C074D06E0E06840F0010394E8070081
:1004F00098471034AC42F6D3FFF71EFE8C2200085A
:10050000AC220008202A04DB203A00FA02F1002085
:1005100070479140C2F1200320FA03F31943904041
:100520007047FEE7704710B501F0ECFABDE81040E7
:10053000082000F015B8704770B5044600F01AF9AD
:100540000546601C02D004480078044400F012F90B
:10055000401BA042FAD370BD340000207047000059
:10056000044910B50A68024202D00860FFF7F6FF9E
:1005700010BD0000140401402DE9F84FDFF8B8A1C8
:1005800000220AF1040B144601274FF00F090BF16A
:10059000040E00BF0B6807FA04F52B40AB4274D180
:1005A000DFF898C14E68A6EB0C0866452BD00DDC31
:1005B000032E34D005DC36B3012E19D0022E2FD1F4
:1005C0001BE0112E16D0122E2AD119E0B8F5881F83
:1005D00019D006DCB8F5803F15D0B8F5801F1FD1C3
:1005E00011E0B8F5001F0ED0B8F5041F18D10AE0CD
:1005F000CA6815E0CA68121D12E0CA6808320FE026
:10060000CA680C320CE08A682AB1012A4FF008024D
:1006100003D0456104E0042202E0056100E000220D
:10062000FF2B01D8064601E000F104064FEA8405DD
:1006300001D9A5F12005D6F800C009FA05F82CEA81
:10064000080C02FA05F54CEA050CC6F800C04D6826
:10065000ED006AD53A4DAE6946F00106AE61AD696E
:1006600024F0030605F001050095364D06EB050C58
:10067000DCF80850A6074FEA167809FA08F6B543E1
:10068000314EB04202D100261AE04EE02F4EB04269
:1006900001D1012614E02E4EB04201D102260FE016
:1006A0002C4EB04201D103260AE02B4EB04201D1BC
:1006B000042605E0294EB04201D1052600E00626B9
:1006C00006FA08F62E43CCF808604D68DAF80060A8
:1006D000ED03554601D51E4300E09E432E604D6854
:1006E000AD0305D5DBF800601E43CBF8006004E0E5
:1006F000DBF800509D43CBF800504D68DEF80060F9
:10070000ED02754601D51E4300E09E432E604D6804
:10071000AD0205D5084D0C352E681E432E6004E051
:10072000054E0C3635689D433560641C102CFFF473
:1007300031AFBDE8F88F0000000401400000111047
:10074000001002400000014000080140000C014080
:10075000001001400014014000180140001C01403D
:100760008068084000D0012070470AB101617047DD
:100770000904FBE70148806870470000340000204E
:10078000024881680278114481607047340000207B
:10079000074810B5016841F010010160032000F026
:1007A00073F8002000F006F800F024F8002010BDD7
:1007B0000020024070B50D4D04464FF47A71287840
:1007C000B1FBF0F00A490968B1FBF0F000F0DCFA87
:1007D00048B9102C07D200222146501E00F034F8F0
:1007E00000206C6070BD012070BD0000340000204E
:1007F000400000200C4808B5816941F00101816189
:10080000816901F001010091C16941F08051C1612C
:10081000C06900F0805000900448416821F0E06118
:1008200041F08061416008BD0010024000000140BD
:1008300000F01F02012191404009800000F1E020FA
:10084000C0F8001170470000F0B40E4B1B680C4656
:10085000C3F30223C3F10705042D00D90425191D94
:10086000072901D2002300E0DB1E012606FA05F16C
:10087000491E214099409E40761E16403143F0BCEF
:1008800000F0CABE0CED00E0064900F0070208685F
:100890004FF6FF03184040EA0220034A1043086065
:1008A000704700000CED00E00000FA052DE9F0476C
:1008B000DFF8548105460E46D8F8000000F0070026
:1008C000B0420CD2D8F8001021F007013143C8F82B
:1008D0000010D8F8000000F00700B0426FD128687F
:1008E0004A4C810712D5400703D5606840F4E060A8
:1008F00060602878000703D5606840F4605060604D
:100900006068A96820F0F000084360602878C0079C
:1009100044D06868012816D02168022816D08907BB
:1009200000294CDA616821F0030101436160FFF79F
:1009300021FF6968074641F2883001290ED002295B
:10094000814618D026E021688903E9E78901E7E7B5
:10095000FFF710FFC11B494501D918E081466068C7
:10096000C0F381000128F3D118E000BFFFF702FFB8
:10097000C11B49450BD86068C0F381000228F5D13E
:100980000CE000BFFFF7F6FEC11B494502D903206A
:10099000BDE8F087606810F00C0FF3D1D8F80010B4
:1009A000404601F00701B1420BD9016821F007016F
:1009B00031430160006800F00700B04201D001201F
:1009C000E6E72878400705D56068E96820F4E0602C
:1009D000084360602878000706D56068296920F41C
:1009E000605040EAC100606000F016F86168084A93
:1009F000C1F30311515CC840064908600020FFF7AD
:100A0000D9FE0020C4E70000002002400010024090
:100A10007C2200084000002012A185B00FC98DE89B
:100A20000F0014A0144A006804905168134801F0A4
:100A30000C03042B10D0082B0ED1C1F38343C90340
:100A40001DF803000AD5516804AAC1F34041515C66
:100A50000A4A5043B0FBF1F005B0704708494843DB
:100A6000FAE7000002030405060708090A0B0C0D4B
:100A70000E0F1010010200000010024000127A0058
:100A800000093D002DE9F84F04460078B94DC00734
:100A900048D06868C0F38100012807D06868C0F3B7
:100AA0008100022809D16868C00306D52868800340
:100AB00038D5606800286FD034E06068B0F5803FBA
:100AC0000BD010B1B0F5A02F11D0286820F48030E1
:100AD0002860286820F4802002E0286840F48030F4
:100AE0002860606888B1FFF745FE064609E028687F
:100AF00040F480202860F0E7FFF73CFE801B64286C
:100B000075D828688003F7D50CE0FFF733FE06465A
:100B100005E000BFFFF72EFE801B6428F0D8286890
:100B20008003F7D42078944E80074FF001094FF0EE
:100B300000083BD5686810F00C0F07D06868C0F358
:100B40008100022809D16868C00306D4286880079C
:100B500014D5206901281FD110E02069B0B1C6F872
:100B60000090FFF707FE074605E000BFFFF702FE13
:100B7000C01B0228C4D828688007F7D52868616997
:100B800020F0F80040EAC10028600FE0C6F80080BD
:100B9000FFF7F0FD074606E0E9E000BFFFF7EAFDDA
:100BA000C01B022823D828688007F7D420780007C4
:100BB0002CD57248A169D9B1C0F80090FFF7DAFDD1
:100BC000074604E0FFF7D6FDC01B02280FD8686A6D
:100BD0008007F7D56A484FF4FA510068B0FBF1F08E
:100BE000009000BF0098411E0091FAD20EE080E014
:100BF000C0F80080FFF7BEFD074604E0FFF7BAFD2E
:100C0000C01B022875D8686A8007F7D4207840078F
:100C100060D5E8690027C00008D4E86940F080503A
:100C2000E861E869012700F08050009055480168AC
:100C3000C90513D40168834641F480710160FFF750
:100C400099FD824606E000BFFFF794FDA0EB0A0085
:100C500064284ED8DBF80000C005F5D5E06801280F
:100C60000AD008B1052813D0286A20F001002862B4
:100C7000286A20F0040002E0286A40F0010028629F
:100C8000E06841F2883B98B1FFF774FD82460BE0C3
:100C9000286A40F004002862EEE700BFFFF76AFD13
:100CA000A0EB0A0159455AD8286A8007F6D50CE00E
:100CB000FFF760FD824605E0FFF75CFDA0EB0A014F
:100CC00059454CD8286A8007F6D41FB1E86920F04E
:100CD0008050E861E06988B36968C1F38101022945
:100CE00045D00228C6F8608004D0FFF743FD0446D3
:100CF00038E034E0FFF73EFD074604E0FFF73AFD39
:100D0000C01B02282BD828688001F7D4206AB0F5D0
:100D1000803F05D16868A16820F40030084368600E
:100D2000D4E908010843696821F474110843686034
:100D3000C6F86090FFF71EFD044606E015E000BF10
:100D4000FFF718FD001B022809D828688001F7D595
:100D50000BE000BFFFF70EFD001B022802D90320A5
:100D6000BDE8F88F28688001F4D40020F8E701205E
:100D7000F6E70000001002400000424280044242B8
:100D8000400000200070004010B5401EB0F1807F90
:100D900001D3012010BD4FF0E02460610F216017E6
:100DA00000F03AFC0020A06107202061002010BD67
:100DB0007047704730B590F83C20012A20D00122BE
:100DC00080F83C20022380F83D3003685C6824F002
:100DD00070045C6003685C680D682C435C600368A9
:100DE0009C6824F080049C6003689C6849680C43FC
:100DF0009C6080F83D20002180F83C10084630BD02
:100E0000022030BD10B5040003D094F83D0010B1AD
:100E100007E0012010BD002084F83C00204600F0CF
:100E20000DF8022084F83D00211D206800F0F6FC3A
:100E3000012084F83D00002010BD000008B50168C5
:100E40001048B1F1804F0BD00F4A914207D1C169D0
:100E500041F00201C161C06900F00200009008BDCC
:100E6000C16941F00101C161C069002200F00100C7
:100E7000009011461C20FFF7E7FCBDE808401C204D
:100E8000FFF7D6BC00100240000400400168CA68A9
:100E900042F00102CA600068016841F0010101608E
:100EA0000020704770B5044690F83C00012817D028
:100EB000012584F83C50022084F83D0020688268B7
:100EC00022F0770222F47F4282600868502837D0EF
:100ED0000DDC202859D005DC88B3102841D151E021
:100EE000022070BD302853D040283AD13FE060281E
:100EF0002ED070280BD0B0F5805F03D0B0F5005F26
:100F00002FD110E02068816821F0070115E0CB683F
:100F1000D1E90121206800F0D2FC2168886840F006
:100F2000770088601DE0CB68D1E90121206800F0DE
:100F3000C6FC2068816841F48041816011E01EE0B8
:100F4000CA684968206800F08FFD5021206806E0DB
:100F5000CA684968206800F098FD6021206800F0A8
:100F6000B8FC84F83D50002084F83C0070BDCA688D
:100F70004968206800F078FD40212068EFE70021F3
:100F80002068ECE710212068E9E720212068E6E7E7
:100F900030212068E3E7704770B5044600680169B6
:100FA0004FF00005C943890715D4C168C9438907B3
:100FB00011D4E91E01610120207720688069800733
:100FC000204602D0FFF7E7FF04E000F0CBF8204610
:100FD00000F04DF9257720680169C943490717D406
:100FE000C168C943490713D46FF0040101610220AD
:100FF00020772068806910F4407F204602D0FFF7F8
:10100000CAFF04E000F0AEF8204600F030F9257782
:1010100020680169C943090716D4C168C943090793
:1010200012D46FF008010161042020772068C069A4
:101030008007204602D0FFF7AEFF04E000F092F8F0
:10104000204600F014F9257720680169C943C906D4
:1010500017D4C168C943C90613D46FF010010161E8
:10106000082020772068C06910F4407F204602D015
:10107000FFF791FF04E000F075F8204600F0F7F864
:10108000257720680169C943C90708D1C168C943E8
:10109000C90704D1891E0161204600F005F92068C6
:1010A0000169C943090609D4C168C943090605D4C1
:1010B0006FF0800101612046FFF77AFE2068016928
:1010C000C943490609D4C168C943490605D46FF02C
:1010D00040010161204600F0E8F820680169C94339
:1010E00089060BD4C168C943890607D46FF0200173
:1010F00001612046BDE87040FFF75BBE70BD000097
:1011000000B585B000210091019102910391006822
:10111000104988421BD11048816941F0100181615A
:101120008069694600F0100004904FF470700090E0
:101130000220019003900948FFF71EFA0848416811
:1011400021F4406141F0E06141F44061416005B04B
:1011500000BD0000000400400010024000100140EB
:1011600000000140704770B5044690F83C000D4601
:1011700001280DD0012684F83C60022084F83D004F
:1011800042B1042A18D0082A2AD00C2A4DD139E0BD
:10119000022070BD206800F0A5FB2068816941F045
:1011A000080181612068816921F004018161206862
:1011B00081692A69114311E0206800F0C3FB2068AF
:1011C000816941F4006181612068816921F4806155
:1011D0008161206881692A6941EA0221816124E0F4
:1011E000206800F0E5FB2068C16941F00801C16199
:1011F0002068C16921F00401C1612068C1692A69C0
:10120000114311E0206800F007FC2068C16941F437
:101210000061C1612068C16921F48061C1612068F9
:10122000C1692A6941EA0221C16184F83D60002058
:1012300084F83C0070BD10B5040003D094F83D0064
:1012400010B107E0012010BD002084F83C002046CA
:1012500000F00CF8022084F83D00211D206800F009
:10126000DDFA012084F83D00002010BD7047704772
:1012700010B504460068012200F016FB08492068FA
:10128000884202D00749884203D1416C41F40041B1
:1012900041642068016841F001010160002010BD37
:1012A000002C01400034014070477047FEE710B544
:1012B000302000F059F80C2000F056F8102000F013
:1012C00053F8062000F050F8BDE81040012000F06F
:1012D0004BB8000070B5154E054601221146304648
:1012E000FFF743FA0024002204213046FFF73DFABD
:1012F00005FA04F0000601D5012200E000220221D7
:101300003046FFF732FA012204213046FFF72DFA6A
:10131000641CE4B2082CE6D3002201213046FFF71A
:1013200024FABDE870400220FFF706B9000C014026
:1013300070B50C4D0446012211462846FFF715FAF8
:10134000FA20FFF7C7FF04F0F000FFF7C3FF200704
:10135000000EFFF7BFFF2846BDE8704000220121C4
:10136000FFF703BA000C014070B50C4D0446012292
:1013700011462846FFF7F9F9F820FFF7ABFF04F014
:10138000F000FFF7A7FF2007000EFFF7A3FF284696
:10139000BDE8704000220121FFF7E7B9000C0140D1
:1013A0002DE9F04F85B00024474800940194029441
:1013B0000394816941F020018161816901F020017C
:1013C0000491816941F010018161816901F010018E
:1013D0000491816941F004018161816901F0040196
:1013E0000491816941F0080181618069DFF8DC8046
:1013F00000F008000490002241F607414046FFF744
:10140000B4F9DFF8CC9000220F214846FFF7ADF980
:10141000DFF8C0B043F60747002239465846FFF7C9
:10142000A4F9DFF8B4A0002204215046FFF79DF98B
:1014300005200125CDE900050220CDE902406946DD
:101440004046FFF799F841F602400326CDE9000532
:10145000CDE9024669464046FFF78EF80820009025
:101460001E48CDE9010469464046FFF785F80F2084
:10147000CDE90005CDE9024669464846FFF77CF80C
:1014800000970396CDE9015469465846FFF774F872
:101490000420CDE90005CDE9024669465046FFF734
:1014A0006BF87820CDE90004694658460294FFF7AE
:1014B00063F8002211460920FFF7C6F90920FFF75B
:1014C000B7F905B0BDE8F08F0010024000100140F0
:1014D00000080140000C0140001401400000111000
:1014E00010B586B000241648009401940294039429
:1014F00004944FF08041059401604721C0E9011434
:1015000042F20F71C0E903148461FFF77BFC08B15C
:10151000FFF711F84FF48050009069460848FFF734
:10152000C1FC08B1FFF707F8049404A90448059426
:10153000FFF740FC002801D0FEF7FDFF06B010BD0C
:101540005C00002010B58EB0002407940894099424
:101550000A940B941C2168460C94FEF71CFE2C4840
:101560002A490160472141601021816040F2E73142
:10157000C0E903148461FFF745FC08B1FEF7DBFF07
:101580004FF48050079007A92148FFF78BFC08B162
:10159000FEF7D1FF1E48FFF74EFE08B1FEF7CBFF66
:1015A0000B940BA91A480C94FFF704FC08B1FEF742
:1015B000C2FF602000906420CDE90104002269464A
:1015C00013480494FFF7CFFD08B1FEF7B4FF0422DF
:1015D00069460F48FFF7C7FD08B1FEF7ACFF0822C8
:1015E00069460B480194FFF7BEFD08B1FEF7A3FF63
:1015F0000C2269460648FFF7B6FD08B1FEF79BFFCF
:101600000348FFF77DFD0EB010BD00000004004050
:101610009C000020FEE770470907090E002806DA43
:1016200000F00F0000F1E02080F8141D704700F179
:10163000E02080F80014704770477047FFF7A0B8AB
:1016400030B58FB028216846FEF7A5FD14210AA801
:10165000FEF7A1FD01210804CDE900100024029449
:1016600002250491CDE907504FF4E0100990684637
:10167000FFF708FA0F20CDE90A056802CDE90C4012
:1016800002210AA80E94FFF711F90FB030BD000037
:101690000D48016841F00101016041680B4A1140A9
:1016A000416001680A4A11400160016821F480210B
:1016B0000160416821F4FE0141604FF41F01816027
:1016C0000449C00308607047001002400000FFF8A2
:1016D000FFFFF6FE08ED00E02DE9F84F0320474C30
:1016E00000904748E168A0F10C07DFF81891006806
:1016F0004FF0010A4FF0020B4FF00008012909D00A
:101700003F4A0229566819D09568032929D004292F
:101710003AD071E0FEF7F4FD02460B460020494640
:10172000FEF776FDFEF716FE3860A169491CA1613F
:10173000012900D16062C4F80C805DE03046FEF7FC
:10174000DFFD02460B4600204946FEF761FDFEF72D
:1017500001FE7860E169491CE1610129EBD1A062D9
:10176000E9E72846FEF7CCFD02460B460020494635
:10177000FEF74EFDFEF7EEFDB860216A491C2162BE
:101780000129D8D1E062D6E7FEF7B1FD616AFEF724
:101790000DFDFEF7C6FD074620603046FEF7A7FDAB
:1017A000A16AFEF703FDFEF7BCFD06466060284611
:1017B000FEF79DFDE16AFEF7F9FCFEF7B2FDC4E914
:1017C0000208C4F81480962806DB962F04DC962EB7
:1017D00006DC5046BDE8F88F962E05DB962F05DC1B
:1017E000962801DC5846F5E7962F05DB962803DCA2
:1017F000962E01DC0098EDE70020EBE704000020C6
:101800005000002000E06F4010B500F051F9BDE835
:1018100010400148FFF7C0BB5C000020F0B5026833
:101820001C4B1D4D1D4E1E4F1E4C4FF0804C9842C0
:1018300009D0A04207D0604505D0A84203D0B042ED
:1018400001D0B84204D122F0700E4A6842EA0E027A
:10185000984209D0A04207D0604505D0A84203D0E5
:10186000B04201D0B84203D122F44075CA682A437D
:1018700022F080054A692A4302608A68C2620A68C7
:101880008262984201D0A04201D10969016301211D
:101890004161F0BD002C0140000400400008004000
:1018A000000C00400034014010B50123046A8B4055
:1018B0009C430462036A8A401343036210BD10B55F
:1018C000846842EA032224F47F440A43224382606C
:1018D00010BD826822F070020A4342F00701816065
:1018E00070470000F0B5026A22F001020262036A4A
:1018F00042688469124E24F073050C682C4323F06F
:1019000002058B682B430D4DA84201D0B04205D192
:1019100023F00807CB683B4323F00403A84201D01F
:10192000B04205D14D6922F4407215438A692A43B9
:1019300042608461496841630362F0BD002C01404C
:1019400000340140F0B5026A22F010020262026A1D
:10195000436884690D6824F4E64444EA05248D68EC
:1019600022F0200242EA05120F4D104EA84201D08B
:10197000B04206D1CF6822F0800242EA071222F07C
:101980004002A84201D0B04207D14D6923F4406320
:1019900043EA85038D6943EA8503436084614968AE
:1019A00081630262F0BD0000002C01400034014060
:1019B000F0B5026A22F480720262026A4368C46966
:1019C00022F4007224F073050C68124E2C438D68CB
:1019D00042EA05220E4DA84201D0B04206D1CF689E
:1019E00022F4006242EA072222F48062A84201D077
:1019F000B04207D14D6923F4405343EA05138D6982
:101A000043EA05134360C4614968C1630262F0BDE3
:101A1000002C01400034014030B5026A22F48052AB
:101A20000262046A4268C3690D6823F4E64343EA2C
:101A300005238D6824F4005444EA0534084DA84277
:101A400002D0084DA84204D14D6922F4804242EAF6
:101A500085124260C36149680164046230BD0000C0
:101A6000002C01400034014010B5036A046A24F0E0
:101A700001040462846924F0F00444EA021423F0AF
:101A80000A020A438461026210BD10B5036A23F0A2
:101A9000100303628369046A23F4704343EA023249
:101AA00024F0A00343EA01118261016210BD00002D
:101AB000124843696BB10146114A0969012B0AD0EA
:101AC000022B0DD0032B11D00421C1600021016134
:101AD0007047002108E00123C3601160194609E046
:101AE0000223C36051600121002004E00323C3608E
:101AF00091600021012000F039B8000004000020AE
:101B00005000002002480169491C01617047000033
:101B10000400002070B50C4600B1012004B101247E
:101B2000094D08B1012200E0002204212846FEF7F9
:101B30001CFE0CB1012200E000222846BDE87040E6
:101B40000821FEF712BE00000008014010B5064C47
:101B5000002201212046FEF708FE20460122BDE8B2
:101B600010400221FEF701BE00080140034A002395
:101B7000136153695B1C5361FFF7CCBF0400002065
:101B8000FEE700000FB4084B10B504A902AA0398A1
:101B900000F01CF8044602A9002000F0C1F820461D
:101BA00010BC5DF814FB0000211D000802E008C80D
:101BB000121F08C1002AFAD170477047002001E0C7
:101BC00001C1121F002AFBD1704700002DE9FF4F11
:101BD00089B09B460446002506E025280BD05A46CE
:101BE0000B999047641C6D1C20780028F5D10DB02E
:101BF0002846BDE8F08F0027B8460122474900E09B
:101C0000074314F8013F203B02FA03F00842F7D1E2
:101C100020782E2819D114F8010F47F004072A283C
:101C20000ED06FF02F022078A0F1300109290CD8D6
:101C300008EB880102EB410100EB0108641CF2E7AC
:101C40000A98641C50F8048B0A9020780028CED0A3
:101C5000642808D0692806D075281ED05A460B99EA
:101C600090476D1C58E00A994FF00A0901C90A9182
:101C7000002802DA40422D2102E0390504D52B214B
:101C80008DF82010012103E0F90704D02021F7E7A7
:101C90008A4608AE0DE00021FAE70A994FF00A09DA
:101CA00001C90A91F7E74946FEF770FB303106F8A3
:101CB000011D0028F7D1ADEB060000F120097807DF
:101CC00001D44FF00108C84502DDA8EB090000E08F
:101CD00000208046002706E008A85A46C05D0B9900
:101CE00090476D1C7F1C5745F6DB04E030205A46B8
:101CF0000B9990476D1CB8F10001A8F10108F5DCC3
:101D000005E016F8010B5A460B9990476D1CB9F186
:101D10000001A9F10109F4DC641C65E70928010050
:101D20000A68531C0B6010707047000070B5204D9E
:101D300008212846FEF714FD1E4C1021207028466D
:101D4000FEF70EFD607020212846FEF709FDA07009
:101D500040212846FEF704FDE07021786278A378E0
:101D600041EA02051D4305431DD0012901D0012A86
:101D700000D10BB122B107E0BDE8704000F0CEB851
:101D8000012B03D0012801D021B108E0BDE870404B
:101D900000F0DAB9012A02D1012B00D118B1BDE857
:101DA000704000F025BABDE8704000F06FB8000048
:101DB000000C01400000002010B500F0F9F84FF4CD
:101DC0004870FEF7B9FB00F061F8BDE81040C8208C
:101DD000FEF7B2BB10B5012811D0022814D0032899
:101DE00017D100F0E5F84FF47A7000BFFEF7A4FBBE
:101DF00000F04CF8BDE81040C820FEF79DBB00F095
:101E0000D7F84FF4FA70F1E700F0D2F84FF44870C9
:101E1000ECE710BD1CB50120FFF7A6FA124813A18C
:101E200002686846FFF7AEFE8020FFF79DFA68461D
:101E300000F0D2F90F4810A102686846FFF7A2FE31
:101E40009020FFF791FA684600F0C6F90C480DA102
:101E500002686846FFF796FE8820FFF785FA684615
:101E600000F0BAF91CBD000004000020523A2564BD
:101E70000000000008000020473A25640000000030
:101E80000C000020423A2564000000002DE9F047D4
:101E900001221E4FD60231463846FEF766FC4FF44B
:101EA0008068002241463846FEF75FFCDFF860900C
:101EB000012251034846FEF758FC4FF4805A002295
:101EC00051464846FEF751FC124D4FF4AF74286856
:101ED00044632868C463012204210F48FEF745FCCF
:101EE000002251463846FEF740FC01224146484652
:101EF000FEF73BFC002231464846FEF736FC2868D8
:101F0000846328680464BDE8F08700000010014085
:101F1000000C01409C000020001401402DE9F04716
:101F20001F4E4FF40065002229463046FEF71DFC87
:101F30000122970239463046FEF717FCDFF864802D
:101F40000022A9004046FEF710FC4FF48059012200
:101F500049464046FEF709FC134C4FF4487021688F
:101F600048632168C863012204211048FEF7FDFB85
:101F7000002249463046FEF7F8FB0122394640462A
:101F8000FEF7F3FB002229464046FEF7EEFB2168F0
:101F90004FF4AF70886321680864BDE8F0870000E3
:101FA00000100140000C01409C0000200014014082
:101FB0002DE9F0471E4F4FF40066002231463846A7
:101FC000FEF7D3FB4FF48068012241463846FEF706
:101FD000CCFBDFF860900022B1004846FEF7C5FB5D
:101FE0004FF4805A012251464846FEF7BEFB124D7F
:101FF0004FF41674286844632868C46301220421DE
:102000000E48FEF7B2FB002251463846FEF7ADFB04
:10201000012241464846FEF7A8FB002231464846C9
:10202000FEF7A3FB2868846328680464BDE8F08792
:1020300000100140000C01409C00002000140140F1
:10204000FEF7A6FBFFF7FCFAFFF7AAF9FFF77AFA0B
:10205000FFF746FA00213548FFF70AF90421334813
:10206000FFF706F908213148FFF702F90C212F4844
:10207000FFF7FEF82E48FEF709FFFFF767FD4FF464
:102080007A70FEF759FAFFF712F9FFF7C3FE002442
:10209000284E294FDFF8A480DFF8A490DFF8A4A031
:1020A000FFF71AFB0546FCB1012CF9D1FFF73EFE04
:1020B00030780128F4D138780128F1D198F800005F
:1020C0000128EDD199F800000128E9D10022022170
:1020D0005046FEF74AFB2846FFF76EFE0024FFF746
:1020E00099FEFFF7F9FA0546FFF720FE3078012840
:1020F000D6D138780128D3D198F800000128CFD163
:1021000099F800000128CBD1002DC9D0FFF782FE3D
:10211000012202215046FEF728FB2846FFF75AFE0F
:102120000124FFF7D9FA0546C0E700009C00002013
:102130005C000020000000200100002002000020C0
:1021400003000020001001402DE9F04701221E4E3F
:10215000D50229463046FEF708FB6F1000223946AB
:102160003046FEF702FBDFF864800122510340464F
:10217000FEF7FBFA4FF48059002249464046FEF72D
:10218000F4FA134C4FF4AF70216848632168C863B8
:10219000002204210F48FEF7E8FA012249463046A2
:1021A000FEF7E3FA002239464046FEF7DEFA012246
:1021B00029464046FEF7D9FA21684FF448708863F3
:1021C00021680864BDE8F08700100140000C014060
:1021D0009C0000200014014010B5044603E000BF3D
:1021E000FFF7A6F8641C20780028F9D110BD000084
:1021F0002DE9F04701221D4FD60231463846FEF741
:10220000B4FA4FF48068012241463846FEF7ADFA31
:10221000DFF85C90012251034846FEF7A6FA4FF41E
:10222000805A012251464846FEF79FFA114D00247C
:10223000286844632868C463012204210E48FEF71D
:1022400094FA012251463846FEF78FFA01224146A0
:102250004846FEF78AFA012231464846FEF785FADB
:102260002868846328680464BDE8F0870010014092
:10227000000C01409C000020001401400000000000
:10228000000000000102030406070809AC22000850
:102290000000002044000000AC1B0008F0220008F1
:1022A000440000209C040000BC1B0008000000004B
:1022B000000000000000000000000000000000001E
:1022C000000000000000000000000000000000000E
:1022D00000000000000000000000000000000000FE
:1022E00001000000100000000000000000A24A04ED
:0400000508000131BD
:00000001FF
